:020000001528C1
:0C000600831221088A00200882000800F4
:1000120003208A110A128000840AA00A0319A10A85
:08002200C003031D09280800BA
:10002A00C03083128C008D01F9308E008F01A4300C
:10003A0090009101B030920093019930940095019B
:10004A00923096009701823098009901F8309A0010
:10005A009B0180309C009D0190309E009F01831679
:10006A008501860114088312860085010130850006
:10007A001A0886008501023085000E08860085016F
:10008A00043085001E0886008501083085004C284A
:02400E00FA3F77
:00000001FF
